{
  "contractName": "FileContract",
  "abi": [
    {
      "anonymous": false,
      "inputs": [
        {
          "indexed": false,
          "internalType": "address",
          "name": "user",
          "type": "address"
        },
        {
          "indexed": false,
          "internalType": "string",
          "name": "fileName",
          "type": "string"
        }
      ],
      "name": "AccessDeleted",
      "type": "event"
    },
    {
      "anonymous": false,
      "inputs": [
        {
          "indexed": false,
          "internalType": "address",
          "name": "user",
          "type": "address"
        },
        {
          "indexed": false,
          "internalType": "string",
          "name": "fileName",
          "type": "string"
        }
      ],
      "name": "AccessGranted",
      "type": "event"
    },
    {
      "anonymous": false,
      "inputs": [
        {
          "indexed": false,
          "internalType": "address",
          "name": "user",
          "type": "address"
        },
        {
          "indexed": false,
          "internalType": "string",
          "name": "fileName",
          "type": "string"
        }
      ],
      "name": "AccessRejected",
      "type": "event"
    },
    {
      "anonymous": false,
      "inputs": [
        {
          "indexed": false,
          "internalType": "string",
          "name": "fileName",
          "type": "string"
        },
        {
          "indexed": false,
          "internalType": "address",
          "name": "owner",
          "type": "address"
        }
      ],
      "name": "FileAdded",
      "type": "event"
    },
    {
      "anonymous": false,
      "inputs": [
        {
          "indexed": false,
          "internalType": "string",
          "name": "fileName",
          "type": "string"
        }
      ],
      "name": "FileUpdated",
      "type": "event"
    },
    {
      "anonymous": false,
      "inputs": [
        {
          "indexed": false,
          "internalType": "address",
          "name": "from",
          "type": "address"
        },
        {
          "indexed": false,
          "internalType": "address",
          "name": "to",
          "type": "address"
        },
        {
          "indexed": false,
          "internalType": "string",
          "name": "fileName",
          "type": "string"
        }
      ],
      "name": "OwnerChanged",
      "type": "event"
    },
    {
      "anonymous": false,
      "inputs": [
        {
          "indexed": false,
          "internalType": "address",
          "name": "user",
          "type": "address"
        },
        {
          "indexed": false,
          "internalType": "string",
          "name": "fileName",
          "type": "string"
        }
      ],
      "name": "RequestAccess",
      "type": "event"
    },
    {
      "constant": false,
      "inputs": [
        {
          "internalType": "string",
          "name": "fileName",
          "type": "string"
        }
      ],
      "name": "requestAccess",
      "outputs": [
        {
          "internalType": "bool",
          "name": "",
          "type": "bool"
        }
      ],
      "payable": true,
      "stateMutability": "payable",
      "type": "function"
    },
    {
      "constant": false,
      "inputs": [
        {
          "internalType": "string",
          "name": "fileName",
          "type": "string"
        },
        {
          "internalType": "address payable",
          "name": "user",
          "type": "address"
        }
      ],
      "name": "grantAccess",
      "outputs": [
        {
          "internalType": "bool",
          "name": "",
          "type": "bool"
        }
      ],
      "payable": false,
      "stateMutability": "nonpayable",
      "type": "function"
    },
    {
      "constant": false,
      "inputs": [
        {
          "internalType": "string",
          "name": "fileName",
          "type": "string"
        },
        {
          "internalType": "address payable",
          "name": "user",
          "type": "address"
        }
      ],
      "name": "rejectAccess",
      "outputs": [
        {
          "internalType": "bool",
          "name": "",
          "type": "bool"
        }
      ],
      "payable": false,
      "stateMutability": "nonpayable",
      "type": "function"
    },
    {
      "constant": false,
      "inputs": [
        {
          "internalType": "string",
          "name": "fileName",
          "type": "string"
        },
        {
          "internalType": "address payable",
          "name": "user",
          "type": "address"
        }
      ],
      "name": "deleteAccess",
      "outputs": [
        {
          "internalType": "bool",
          "name": "",
          "type": "bool"
        }
      ],
      "payable": false,
      "stateMutability": "nonpayable",
      "type": "function"
    },
    {
      "constant": false,
      "inputs": [
        {
          "internalType": "address payable",
          "name": "newUser",
          "type": "address"
        },
        {
          "internalType": "string",
          "name": "fileName",
          "type": "string"
        }
      ],
      "name": "changeOwner",
      "outputs": [
        {
          "internalType": "bool",
          "name": "",
          "type": "bool"
        }
      ],
      "payable": false,
      "stateMutability": "nonpayable",
      "type": "function"
    },
    {
      "constant": false,
      "inputs": [
        {
          "internalType": "string",
          "name": "fileName",
          "type": "string"
        },
        {
          "internalType": "string",
          "name": "ipfsHash",
          "type": "string"
        }
      ],
      "name": "updateFile",
      "outputs": [
        {
          "internalType": "bool",
          "name": "",
          "type": "bool"
        }
      ],
      "payable": false,
      "stateMutability": "nonpayable",
      "type": "function"
    },
    {
      "constant": false,
      "inputs": [
        {
          "internalType": "string",
          "name": "fileName",
          "type": "string"
        },
        {
          "internalType": "string",
          "name": "fileHash",
          "type": "string"
        }
      ],
      "name": "addFile",
      "outputs": [
        {
          "internalType": "bool",
          "name": "",
          "type": "bool"
        }
      ],
      "payable": false,
      "stateMutability": "nonpayable",
      "type": "function"
    },
    {
      "constant": true,
      "inputs": [
        {
          "internalType": "string",
          "name": "fileName",
          "type": "string"
        }
      ],
      "name": "getFileData",
      "outputs": [
        {
          "internalType": "string",
          "name": "",
          "type": "string"
        },
        {
          "internalType": "string",
          "name": "",
          "type": "string"
        }
      ],
      "payable": false,
      "stateMutability": "view",
      "type": "function"
    }
  ],
  "bytecode": "0x608060405234801561001057600080fd5b50612a79806100206000396000f3fe60806040526004361061007b5760003560e01c806378998bbf1161004e57806378998bbf146103b55780639e1f9daa14610520578063a6966e25146105de578063f37c215e1461069c5761007b565b806310ee1b2214610080578063248bfc3b146101115780633b710f8c14610204578063464ed51c146102c2575b600080fd5b6100f76004803603602081101561009657600080fd5b81019080803590602001906401000000008111156100b357600080fd5b8201836020820111156100c557600080fd5b803590602001918460018302840111640100000000831117156100e757600080fd5b909192939192939050505061075a565b604051808215151515815260200191505060405180910390f35b34801561011d57600080fd5b506101ea6004803603604081101561013457600080fd5b810190808035906020019064010000000081111561015157600080fd5b82018360208201111561016357600080fd5b8035906020019184600183028401116401000000008311171561018557600080fd5b9091929391929390803590602001906401000000008111156101a657600080fd5b8201836020820111156101b857600080fd5b803590602001918460018302840111640100000000831117156101da57600080fd5b9091929391929390505050610b76565b604051808215151515815260200191505060405180910390f35b34801561021057600080fd5b506102a86004803603604081101561022757600080fd5b81019080803573ffffffffffffffffffffffffffffffffffffffff1690602001909291908035906020019064010000000081111561026457600080fd5b82018360208201111561027657600080fd5b8035906020019184600183028401116401000000008311171561029857600080fd5b9091929391929390505050610e07565b604051808215151515815260200191505060405180910390f35b3480156102ce57600080fd5b5061039b600480360360408110156102e557600080fd5b810190808035906020019064010000000081111561030257600080fd5b82018360208201111561031457600080fd5b8035906020019184600183028401116401000000008311171561033657600080fd5b90919293919293908035906020019064010000000081111561035757600080fd5b82018360208201111561036957600080fd5b8035906020019184600183028401116401000000008311171561038b57600080fd5b9091929391929390505050611176565b604051808215151515815260200191505060405180910390f35b3480156103c157600080fd5b50610439600480360360208110156103d857600080fd5b81019080803590602001906401000000008111156103f557600080fd5b82018360208201111561040757600080fd5b8035906020019184600183028401116401000000008311171561042957600080fd5b90919293919293905050506113ca565b604051808060200180602001838103835285818151815260200191508051906020019080838360005b8381101561047d578082015181840152602081019050610462565b50505050905090810190601f1680156104aa5780820380516001836020036101000a031916815260200191505b50838103825284818151815260200191508051906020019080838360005b838110156104e35780820151818401526020810190506104c8565b50505050905090810190601f1680156105105780820380516001836020036101000a031916815260200191505b5094505050505060405180910390f35b34801561052c57600080fd5b506105c46004803603604081101561054357600080fd5b810190808035906020019064010000000081111561056057600080fd5b82018360208201111561057257600080fd5b8035906020019184600183028401116401000000008311171561059457600080fd5b9091929391929390803573ffffffffffffffffffffffffffffffffffffffff169060200190929190505050611607565b604051808215151515815260200191505060405180910390f35b3480156105ea57600080fd5b506106826004803603604081101561060157600080fd5b810190808035906020019064010000000081111561061e57600080fd5b82018360208201111561063057600080fd5b8035906020019184600183028401116401000000008311171561065257600080fd5b9091929391929390803573ffffffffffffffffffffffffffffffffffffffff169060200190929190505050611b1d565b604051808215151515815260200191505060405180910390f35b3480156106a857600080fd5b50610740600480360360408110156106bf57600080fd5b81019080803590602001906401000000008111156106dc57600080fd5b8201836020820111156106ee57600080fd5b8035906020019184600183028401116401000000008311171561071057600080fd5b9091929391929390803573ffffffffffffffffffffffffffffffffffffffff169060200190929190505050612033565b604051808215151515815260200191505060405180910390f35b60006107a983838080601f016020809104026020016040519081016040528093929190818152602001838380828437600081840152601f19601f82011690508083019250505050505050612630565b61081b576040517f08c379a00000000000000000000000000000000000000000000000000000000081526004018080602001828103825260138152602001807f4e6f20737563682066696c65206578697374730000000000000000000000000081525060200191505060405180910390fd5b60008383604051808383808284378083019250505092505050908152602001604051809103902060020160009054906101000a900473ffffffffffffffffffffffffffffffffffffffff1673ffffffffffffffffffffffffffffffffffffffff163373ffffffffffffffffffffffffffffffffffffffff161415610907576040517f08c379a00000000000000000000000000000000000000000000000000000000081526004018080602001828103825260208152602001807f4f776e65722063616e2774207265717565737420686973206f776e2066696c6581525060200191505060405180910390fd5b61095583838080601f016020809104026020016040519081016040528093929190818152602001838380828437600081840152601f19601f8201169050808301925050505050505033612705565b156109635760009050610b70565b600080905060006001858560405180838380828437808301925050509250505090815260200160405180910390208054905090505b808214610a47573373ffffffffffffffffffffffffffffffffffffffff1660018686604051808383808284378083019250505092505050908152602001604051809103902083815481106109e857fe5b9060005260206000200160009054906101000a900473ffffffffffffffffffffffffffffffffffffffff1673ffffffffffffffffffffffffffffffffffffffff161415610a3a57600092505050610b70565b8180600101925050610998565b6001858560405180838380828437808301925050509250505090815260200160405180910390203390806001815401808255809150509060018203906000526020600020016000909192909190916101000a81548173ffffffffffffffffffffffffffffffffffffffff021916908373ffffffffffffffffffffffffffffffffffffffff160217905550507f1d0ae0127cd8d77a35dca71a88ccc8de4dc8a330bc097fae8b71950e2733ac87338686604051808473ffffffffffffffffffffffffffffffffffffffff1673ffffffffffffffffffffffffffffffffffffffff168152602001806020018281038252848482818152602001925080828437600081840152601f19601f82011690508083019250505094505050505060405180910390a16001925050505b92915050565b6000801515610bc886868080601f016020809104026020016040519081016040528093929190818152602001838380828437600081840152601f19601f82011690508083019250505050505050612630565b151514610c3d576040517f08c379a00000000000000000000000000000000000000000000000000000000081526004018080602001828103825260138152602001807f46696c6520616c7265616479206578697374730000000000000000000000000081525060200191505060405180910390fd5b3360008686604051808383808284378083019250505092505050908152602001604051809103902060020160006101000a81548173ffffffffffffffffffffffffffffffffffffffff021916908373ffffffffffffffffffffffffffffffffffffffff16021790555082826000878760405180838380828437808301925050509250505090815260200160405180910390206001019190610cdf92919061295b565b5084846000878760405180838380828437808301925050509250505090815260200160405180910390206000019190610d1992919061295b565b507f3d6230f137c6942fa1b327765cd685aa1224f25fb06390f3c4f24e718d455b7b858560008888604051808383808284378083019250505092505050908152602001604051809103902060020160009054906101000a900473ffffffffffffffffffffffffffffffffffffffff1660405180806020018373ffffffffffffffffffffffffffffffffffffffff1673ffffffffffffffffffffffffffffffffffffffff1681526020018281038252858582818152602001925080828437600081840152601f19601f82011690508083019250505094505050505060405180910390a160019050949350505050565b6000808383604051808383808284378083019250505092505050908152602001604051809103902060020160009054906101000a900473ffffffffffffffffffffffffffffffffffffffff1673ffffffffffffffffffffffffffffffffffffffff163373ffffffffffffffffffffffffffffffffffffffff1614610ed6576040517f08c379a0000000000000000000000000000000000000000000000000000000008152600401808060200182810382526023815260200180612a016023913960400191505060405180910390fd5b610f2383838080601f016020809104026020016040519081016040528093929190818152602001838380828437600081840152601f19601f82011690508083019250505050505050612630565b610f95576040517f08c379a00000000000000000000000000000000000000000000000000000000081526004018080602001828103825260138152602001807f46696c6520646f65736e2774206578697374730000000000000000000000000081525060200191505060405180910390fd5b3373ffffffffffffffffffffffffffffffffffffffff168473ffffffffffffffffffffffffffffffffffffffff161415611037576040517f08c379a000000000000000000000000000000000000000000000000000000000815260040180806020018281038252600c8152602001807f416c72656179206f776e6572000000000000000000000000000000000000000081525060200191505060405180910390fd5b8360008484604051808383808284378083019250505092505050908152602001604051809103902060020160006101000a81548173ffffffffffffffffffffffffffffffffffffffff021916908373ffffffffffffffffffffffffffffffffffffffff1602179055507f24bf7bbb9577c1824cc880c0eaed22e26978db6504135a0a702ed461a572849533858585604051808573ffffffffffffffffffffffffffffffffffffffff1673ffffffffffffffffffffffffffffffffffffffff1681526020018473ffffffffffffffffffffffffffffffffffffffff1673ffffffffffffffffffffffffffffffffffffffff168152602001806020018281038252848482818152602001925080828437600081840152601f19601f8201169050808301925050509550505050505060405180910390a1600190509392505050565b6000808585604051808383808284378083019250505092505050908152602001604051809103902060020160009054906101000a900473ffffffffffffffffffffffffffffffffffffffff1673ffffffffffffffffffffffffffffffffffffffff163373ffffffffffffffffffffffffffffffffffffffff1614611262576040517f08c379a000000000000000000000000000000000000000000000000000000000815260040180806020018281038252601a8152602001807f4f6e6c79206f776e65722063616e206368616e67652066696c6500000000000081525060200191505060405180910390fd5b6112af85858080601f016020809104026020016040519081016040528093929190818152602001838380828437600081840152601f19601f82011690508083019250505050505050612630565b611321576040517f08c379a00000000000000000000000000000000000000000000000000000000081526004018080602001828103825260138152602001807f46696c6520646f65736e2774206578697374730000000000000000000000000081525060200191505060405180910390fd5b8282600087876040518083838082843780830192505050925050509081526020016040518091039020600101919061135a92919061295b565b507fbe88c49e716dc1a8bfea342d64482bf1854bed5b1d188e1c7869b0519dac42e7858560405180806020018281038252848482818152602001925080828437600081840152601f19601f820116905080830192505050935050505060405180910390a160019050949350505050565b60608061141b84848080601f016020809104026020016040519081016040528093929190818152602001838380828437600081840152601f19601f8201169050808301925050505050505033612705565b611470576040517f08c379a0000000000000000000000000000000000000000000000000000000008152600401808060200182810382526021815260200180612a246021913960400191505060405180910390fd5b600084846040518083838082843780830192505050925050509081526020016040518091039020600001600085856040518083838082843780830192505050925050509081526020016040518091039020600101818054600181600116156101000203166002900480601f0160208091040260200160405190810160405280929190818152602001828054600181600116156101000203166002900480156115595780601f1061152e57610100808354040283529160200191611559565b820191906000526020600020905b81548152906001019060200180831161153c57829003601f168201915b50505050509150808054600181600116156101000203166002900480601f0160208091040260200160405190810160405280929190818152602001828054600181600116156101000203166002900480156115f55780601f106115ca576101008083540402835291602001916115f5565b820191906000526020600020905b8154815290600101906020018083116115d857829003601f168201915b50505050509050915091509250929050565b600061165684848080601f016020809104026020016040519081016040528093929190818152602001838380828437600081840152601f19601f82011690508083019250505050505050612630565b6116c8576040517f08c379a00000000000000000000000000000000000000000000000000000000081526004018080602001828103825260138152602001807f4e6f20737563682066696c65206578697374730000000000000000000000000081525060200191505060405180910390fd5b3373ffffffffffffffffffffffffffffffffffffffff1660008585604051808383808284378083019250505092505050908152602001604051809103902060020160009054906101000a900473ffffffffffffffffffffffffffffffffffffffff1673ffffffffffffffffffffffffffffffffffffffff16146117b3576040517f08c379a000000000000000000000000000000000000000000000000000000000815260040180806020018281038252601c8152602001807f4f6e6c79206f776e65722063616e2064656c657465206163636573730000000081525060200191505060405180910390fd5b3373ffffffffffffffffffffffffffffffffffffffff168273ffffffffffffffffffffffffffffffffffffffff161415611855576040517f08c379a000000000000000000000000000000000000000000000000000000000815260040180806020018281038252601f8152602001807f4f776e65722063616e27742064656c657465207468656972206163636573730081525060200191505060405180910390fd5b600080905060006002868660405180838380828437808301925050509250505090815260200160405180910390208054905090505b808214611b0f578373ffffffffffffffffffffffffffffffffffffffff1660028787604051808383808284378083019250505092505050908152602001604051809103902083815481106118da57fe5b9060005260206000200160009054906101000a900473ffffffffffffffffffffffffffffffffffffffff1673ffffffffffffffffffffffffffffffffffffffff161415611b0257600286866040518083838082843780830192505050925050509081526020016040518091039020600182038154811061195657fe5b9060005260206000200160009054906101000a900473ffffffffffffffffffffffffffffffffffffffff1660028787604051808383808284378083019250505092505050908152602001604051809103902083815481106119b357fe5b9060005260206000200160006101000a81548173ffffffffffffffffffffffffffffffffffffffff021916908373ffffffffffffffffffffffffffffffffffffffff160217905550600286866040518083838082843780830192505050925050509081526020016040518091039020805480611a2b57fe5b6001900381819060005260206000200160006101000a81549073ffffffffffffffffffffffffffffffffffffffff021916905590557f02f2820c78c3b0bc3022b0f94730466b215797e193e82bfaf5f627b182f5d7bb848787604051808473ffffffffffffffffffffffffffffffffffffffff1673ffffffffffffffffffffffffffffffffffffffff168152602001806020018281038252848482818152602001925080828437600081840152601f19601f82011690508083019250505094505050505060405180910390a1600192505050611b16565b818060010192505061188a565b6000925050505b9392505050565b6000611b6c84848080601f016020809104026020016040519081016040528093929190818152602001838380828437600081840152601f19601f82011690508083019250505050505050612630565b611bde576040517f08c379a00000000000000000000000000000000000000000000000000000000081526004018080602001828103825260138152602001807f4e6f20737563682066696c65206578697374730000000000000000000000000081525060200191505060405180910390fd5b3373ffffffffffffffffffffffffffffffffffffffff1660008585604051808383808284378083019250505092505050908152602001604051809103902060020160009054906101000a900473ffffffffffffffffffffffffffffffffffffffff1673ffffffffffffffffffffffffffffffffffffffff1614611cc9576040517f08c379a000000000000000000000000000000000000000000000000000000000815260040180806020018281038252601c8152602001807f4f6e6c79206f776e65722063616e2072656a656374206163636573730000000081525060200191505060405180910390fd5b3373ffffffffffffffffffffffffffffffffffffffff168273ffffffffffffffffffffffffffffffffffffffff161415611d6b576040517f08c379a000000000000000000000000000000000000000000000000000000000815260040180806020018281038252601f8152602001807f4f776e65722063616e27742072656a656374207468656972206163636573730081525060200191505060405180910390fd5b600080905060006001868660405180838380828437808301925050509250505090815260200160405180910390208054905090505b808214612025578373ffffffffffffffffffffffffffffffffffffffff166001878760405180838380828437808301925050509250505090815260200160405180910390208381548110611df057fe5b9060005260206000200160009054906101000a900473ffffffffffffffffffffffffffffffffffffffff1673ffffffffffffffffffffffffffffffffffffffff161415612018576001868660405180838380828437808301925050509250505090815260200160405180910390206001820381548110611e6c57fe5b9060005260206000200160009054906101000a900473ffffffffffffffffffffffffffffffffffffffff166001878760405180838380828437808301925050509250505090815260200160405180910390208381548110611ec957fe5b9060005260206000200160006101000a81548173ffffffffffffffffffffffffffffffffffffffff021916908373ffffffffffffffffffffffffffffffffffffffff160217905550600186866040518083838082843780830192505050925050509081526020016040518091039020805480611f4157fe5b6001900381819060005260206000200160006101000a81549073ffffffffffffffffffffffffffffffffffffffff021916905590557fa67315a61f9839e43d7ad9c9f1a3b6b0948c3defc950b0970ea70462eb7c0fcf848787604051808473ffffffffffffffffffffffffffffffffffffffff1673ffffffffffffffffffffffffffffffffffffffff168152602001806020018281038252848482818152602001925080828437600081840152601f19601f82011690508083019250505094505050505060405180910390a160019250505061202c565b8180600101925050611da0565b6000925050505b9392505050565b600061208284848080601f016020809104026020016040519081016040528093929190818152602001838380828437600081840152601f19601f82011690508083019250505050505050612630565b6120f4576040517f08c379a00000000000000000000000000000000000000000000000000000000081526004018080602001828103825260138152602001807f4e6f20737563682066696c65206578697374730000000000000000000000000081525060200191505060405180910390fd5b3373ffffffffffffffffffffffffffffffffffffffff1660008585604051808383808284378083019250505092505050908152602001604051809103902060020160009054906101000a900473ffffffffffffffffffffffffffffffffffffffff1673ffffffffffffffffffffffffffffffffffffffff16146121df576040517f08c379a000000000000000000000000000000000000000000000000000000000815260040180806020018281038252601b8152602001807f4f6e6c79206f776e65722063616e206772616e7420616363657373000000000081525060200191505060405180910390fd5b3373ffffffffffffffffffffffffffffffffffffffff168273ffffffffffffffffffffffffffffffffffffffff161415612281576040517f08c379a000000000000000000000000000000000000000000000000000000000815260040180806020018281038252601a8152602001807f4f776e65722063616e277420726571756573742061636365737300000000000081525060200191505060405180910390fd5b6122cf84848080601f016020809104026020016040519081016040528093929190818152602001838380828437600081840152601f19601f8201169050808301925050505050505083612705565b156122dd5760009050612629565b600080905060006001868660405180838380828437808301925050509250505090815260200160405180910390208054905090505b808214612622578373ffffffffffffffffffffffffffffffffffffffff16600187876040518083838082843780830192505050925050509081526020016040518091039020838154811061236257fe5b9060005260206000200160009054906101000a900473ffffffffffffffffffffffffffffffffffffffff1673ffffffffffffffffffffffffffffffffffffffff1614156126155760018686604051808383808284378083019250505092505050908152602001604051809103902060018203815481106123de57fe5b9060005260206000200160009054906101000a900473ffffffffffffffffffffffffffffffffffffffff16600187876040518083838082843780830192505050925050509081526020016040518091039020838154811061243b57fe5b9060005260206000200160006101000a81548173ffffffffffffffffffffffffffffffffffffffff021916908373ffffffffffffffffffffffffffffffffffffffff1602179055506001868660405180838380828437808301925050509250505090815260200160405180910390208054806124b357fe5b6001900381819060005260206000200160006101000a81549073ffffffffffffffffffffffffffffffffffffffff021916905590556002868660405180838380828437808301925050509250505090815260200160405180910390208490806001815401808255809150509060018203906000526020600020016000909192909190916101000a81548173ffffffffffffffffffffffffffffffffffffffff021916908373ffffffffffffffffffffffffffffffffffffffff160217905550507f883d542f167dfc5f47e8bf1532c171025ed0e4c59c1126c7f61749fa21976a45848787604051808473ffffffffffffffffffffffffffffffffffffffff1673ffffffffffffffffffffffffffffffffffffffff168152602001806020018281038252848482818152602001925080828437600081840152601f19601f82011690508083019250505094505050505060405180910390a1600192505050612629565b8180600101925050612312565b6000925050505b9392505050565b60008073ffffffffffffffffffffffffffffffffffffffff166000836040518082805190602001908083835b6020831061267f578051825260208201915060208101905060208303925061265c565b6001836020036101000a038019825116818451168082178552505050505050905001915050908152602001604051809103902060020160009054906101000a900473ffffffffffffffffffffffffffffffffffffffff1673ffffffffffffffffffffffffffffffffffffffff1614156126fb5760009050612700565b600190505b919050565b600061271083612630565b61271d5760009050612955565b6000836040518082805190602001908083835b602083106127535780518252602082019150602081019050602083039250612730565b6001836020036101000a038019825116818451168082178552505050505050905001915050908152602001604051809103902060020160009054906101000a900473ffffffffffffffffffffffffffffffffffffffff1673ffffffffffffffffffffffffffffffffffffffff168273ffffffffffffffffffffffffffffffffffffffff1614156127e65760019050612955565b60006002846040518082805190602001908083835b6020831061281e57805182526020820191506020810190506020830392506127fb565b6001836020036101000a038019825116818451168082178552505050505050905001915050908152602001604051809103902080549050905060008090505b81811461294e578373ffffffffffffffffffffffffffffffffffffffff166002866040518082805190602001908083835b602083106128b1578051825260208201915060208101905060208303925061288e565b6001836020036101000a038019825116818451168082178552505050505050905001915050908152602001604051809103902082815481106128ef57fe5b9060005260206000200160009054906101000a900473ffffffffffffffffffffffffffffffffffffffff1673ffffffffffffffffffffffffffffffffffffffff16141561294157600192505050612955565b808060010191505061285d565b6000925050505b92915050565b828054600181600116156101000203166002900490600052602060002090601f016020900481019282601f1061299c57803560ff19168380011785556129ca565b828001600101855582156129ca579182015b828111156129c95782358255916020019190600101906129ae565b5b5090506129d791906129db565b5090565b6129fd91905b808211156129f95760008160009055506001016129e1565b5090565b9056fe4f6e6c79206f776e65722063616e206368616e6765206f776e6572206f662066696c65596f7520646f6e277420686176652061636365737320746f207468652064617461a265627a7a723158204cb05c737dc6155a11a93913d9441cf6b2f61b8b288f1f61ce05c992d9caf88264736f6c63430005100032",
  "source": "// SPDX-License-Identifier: MIT\npragma solidity >=0.4.22 <0.9.0;\n\ncontract FileContract {\n    uint256 constant priceForAccess = 0.016 ether; // price for access\n\n    struct File {\n        string fileName;\n        string ipfsHash;\n        address owner;\n    }\n\n    mapping(string => File) files;\n    mapping(string => address[]) requests;\n    mapping(string => address[]) grants;\n\n    function fileExists(string memory fileName) private view returns (bool) {\n        if (files[fileName].owner == address(0)) {\n            return (false);\n        }\n        return (true);\n    }\n\n    event RequestAccess(address user, string fileName);\n\n    function requestAccess(string calldata fileName)\n        external\n        payable\n        returns (bool)\n    {\n        require(fileExists(fileName), \"No such file exists\");\n        require(\n            msg.sender != files[fileName].owner,\n            \"Owner can't request his own file\"\n        );\n        if (granted(fileName, msg.sender)) {\n            return (false);\n        }\n        uint256 i = 0;\n        uint256 len = requests[fileName].length;\n        for (; i != len; i++) {\n            if (requests[fileName][i] == msg.sender) {\n                return (false);\n            }\n        }\n        requests[fileName].push(msg.sender);\n        emit RequestAccess(msg.sender, fileName);\n        return (true);\n    }\n\n    event AccessGranted(address user, string fileName);\n\n    function grantAccess(string calldata fileName, address payable user)\n        external\n        returns (bool)\n    {\n        require(fileExists(fileName), \"No such file exists\");\n        require(\n            files[fileName].owner == msg.sender,\n            \"Only owner can grant access\"\n        );\n        require(user != msg.sender, \"Owner can't request access\");\n        if (granted(fileName, user)) {\n            return (false);\n        }\n        uint256 i = 0;\n        uint256 len = requests[fileName].length;\n        for (; i != len; i++) {\n            if (requests[fileName][i] == user) {\n                requests[fileName][i] = requests[fileName][len - 1];\n                requests[fileName].pop();\n                grants[fileName].push(user);\n                emit AccessGranted(user, fileName);\n                return (true);\n            }\n        }\n        return (false);\n    }\n\n    event AccessRejected(address user, string fileName);\n\n    function rejectAccess(string calldata fileName, address payable user)\n        external\n        returns (bool)\n    {\n        require(fileExists(fileName), \"No such file exists\");\n        require(\n            files[fileName].owner == msg.sender,\n            \"Only owner can reject access\"\n        );\n        require(user != msg.sender, \"Owner can't reject their access\");\n        uint256 i = 0;\n        uint256 len = requests[fileName].length;\n        for (; i != len; i++) {\n            if (requests[fileName][i] == user) {\n                requests[fileName][i] = requests[fileName][len - 1];\n                requests[fileName].pop();\n                emit AccessRejected(user, fileName);\n                return (true);\n            }\n        }\n        return (false);\n    }\n\n    event AccessDeleted(address user, string fileName);\n\n    function deleteAccess(string calldata fileName, address payable user)\n        external\n        returns (bool)\n    {\n        require(fileExists(fileName), \"No such file exists\");\n        require(\n            files[fileName].owner == msg.sender,\n            \"Only owner can delete access\"\n        );\n        require(user != msg.sender, \"Owner can't delete their access\");\n        uint256 i = 0;\n        uint256 len = grants[fileName].length;\n        for (; i != len; i++) {\n            if (grants[fileName][i] == user) {\n                grants[fileName][i] = grants[fileName][len - 1];\n                grants[fileName].pop();\n                emit AccessDeleted(user, fileName);\n                return (true);\n            }\n        }\n        return (false);\n    }\n\n    event OwnerChanged(address from, address to, string fileName);\n\n    function changeOwner(address payable newUser, string calldata fileName)\n        external\n        returns (bool)\n    {\n        require(\n            msg.sender == files[fileName].owner,\n            \"Only owner can change owner of file\"\n        );\n        require(fileExists(fileName), \"File doesn't exists\");\n        require(newUser != msg.sender, \"Alreay owner\");\n        files[fileName].owner = newUser;\n        emit OwnerChanged(msg.sender, newUser, fileName);\n        return (true);\n    }\n\n    event FileUpdated(string fileName);\n\n    function updateFile(string calldata fileName, string calldata ipfsHash)\n        external\n        returns (bool)\n    {\n        require(\n            msg.sender == files[fileName].owner,\n            \"Only owner can change file\"\n        );\n        require(fileExists(fileName), \"File doesn't exists\");\n        files[fileName].ipfsHash = ipfsHash;\n        emit FileUpdated(fileName);\n        return (true);\n    }\n\n    event FileAdded(string fileName, address owner);\n\n    function addFile(string calldata fileName, string calldata fileHash)\n        external\n        returns (bool)\n    {\n        require(fileExists(fileName) == false, \"File already exists\");\n        files[fileName].owner = msg.sender;\n        files[fileName].ipfsHash = fileHash;\n        files[fileName].fileName = fileName;\n        emit FileAdded(fileName, files[fileName].owner);\n        return (true);\n    }\n\n    function granted(string memory fileName, address user)\n        private\n        view\n        returns (bool)\n    {\n        if (!fileExists(fileName)) {\n            return (false);\n        }\n        if (user == files[fileName].owner) {\n            return (true);\n        }\n        uint256 len = grants[fileName].length;\n        uint256 i = 0;\n        for (; i != len; i++) {\n            if (grants[fileName][i] == user) {\n                return (true);\n            }\n        }\n        return (false);\n    }\n\n    function getFileData(string calldata fileName)\n        external\n        view\n        returns (string memory, string memory)\n    {\n        require(\n            granted(fileName, msg.sender),\n            \"You don't have access to the data\"\n        );\n        return (files[fileName].fileName, files[fileName].ipfsHash);\n    }\n}\n",
  "sourcePath": "/home/lakhan/Desktop/ipfs_ethereum/contracts/FileContract.sol",
  "compiler": {
    "name": "solc",
    "version": "0.5.16+commit.9c3226ce.Emscripten.clang"
  },
  "schemaVersion": "3.4.1",
  "updatedAt": "2021-06-09T09:59:02.708Z",
  "networkType": "ethereum",
  "devdoc": {
    "methods": {}
  },
  "userdoc": {
    "methods": {}
  }
}