{
  "contractName": "FileContract",
  "abi": [
    {
      "constant": false,
      "inputs": [
        {
          "internalType": "string",
          "name": "fileName",
          "type": "string"
        },
        {
          "internalType": "address payable",
          "name": "user",
          "type": "address"
        }
      ],
      "name": "requestAccess",
      "outputs": [
        {
          "internalType": "bool",
          "name": "",
          "type": "bool"
        }
      ],
      "payable": true,
      "stateMutability": "payable",
      "type": "function"
    },
    {
      "constant": false,
      "inputs": [
        {
          "internalType": "string",
          "name": "fileName",
          "type": "string"
        },
        {
          "internalType": "address payable",
          "name": "user",
          "type": "address"
        }
      ],
      "name": "grantAccess",
      "outputs": [
        {
          "internalType": "bool",
          "name": "",
          "type": "bool"
        }
      ],
      "payable": true,
      "stateMutability": "payable",
      "type": "function"
    },
    {
      "constant": false,
      "inputs": [
        {
          "internalType": "address payable",
          "name": "newUser",
          "type": "address"
        },
        {
          "internalType": "string",
          "name": "fileName",
          "type": "string"
        }
      ],
      "name": "changeOwner",
      "outputs": [],
      "payable": true,
      "stateMutability": "payable",
      "type": "function"
    },
    {
      "constant": false,
      "inputs": [
        {
          "internalType": "string",
          "name": "fileHash",
          "type": "string"
        },
        {
          "internalType": "string",
          "name": "fileName",
          "type": "string"
        },
        {
          "internalType": "enum FileContract.FileType",
          "name": "fileType",
          "type": "uint8"
        }
      ],
      "name": "addFile",
      "outputs": [
        {
          "internalType": "string",
          "name": "",
          "type": "string"
        }
      ],
      "payable": false,
      "stateMutability": "nonpayable",
      "type": "function"
    }
  ],
  "bytecode": "0x608060405234801561001057600080fd5b506112ad806100206000396000f3fe60806040526004361061003f5760003560e01c806317b9df44146100445780632d34f01f146100f55780633b710f8c14610256578063f37c215e146102ef575b600080fd5b6100db6004803603604081101561005a57600080fd5b810190808035906020019064010000000081111561007757600080fd5b82018360208201111561008957600080fd5b803590602001918460018302840111640100000000831117156100ab57600080fd5b9091929391929390803573ffffffffffffffffffffffffffffffffffffffff1690602001909291905050506103a0565b604051808215151515815260200191505060405180910390f35b34801561010157600080fd5b506101db6004803603606081101561011857600080fd5b810190808035906020019064010000000081111561013557600080fd5b82018360208201111561014757600080fd5b8035906020019184600183028401116401000000008311171561016957600080fd5b90919293919293908035906020019064010000000081111561018a57600080fd5b82018360208201111561019c57600080fd5b803590602001918460018302840111640100000000831117156101be57600080fd5b9091929391929390803560ff16906020019092919050505061083e565b6040518080602001828103825283818151815260200191508051906020019080838360005b8381101561021b578082015181840152602081019050610200565b50505050905090810190601f1680156102485780820380516001836020036101000a031916815260200191505b509250505060405180910390f35b6102ed6004803603604081101561026c57600080fd5b81019080803573ffffffffffffffffffffffffffffffffffffffff169060200190929190803590602001906401000000008111156102a957600080fd5b8201836020820111156102bb57600080fd5b803590602001918460018302840111640100000000831117156102dd57600080fd5b9091929391929390505050610a7e565b005b6103866004803603604081101561030557600080fd5b810190808035906020019064010000000081111561032257600080fd5b82018360208201111561033457600080fd5b8035906020019184600183028401116401000000008311171561035657600080fd5b9091929391929390803573ffffffffffffffffffffffffffffffffffffffff169060200190929190505050610c5c565b604051808215151515815260200191505060405180910390f35b60003373ffffffffffffffffffffffffffffffffffffffff168273ffffffffffffffffffffffffffffffffffffffff161415610444576040517f08c379a000000000000000000000000000000000000000000000000000000000815260040180806020018281038252601a8152602001807f4f776e65722063616e277420726571756573742061636365737300000000000081525060200191505060405180910390fd5b61049184848080601f016020809104026020016040519081016040528093929190818152602001838380828437600081840152601f19601f820116905080830192505050505050506110db565b610503576040517f08c379a00000000000000000000000000000000000000000000000000000000081526004018080602001828103825260138152602001807f4e6f20737563682066696c65206578697374730000000000000000000000000081525060200191505060405180910390fd5b6001600281111561051057fe5b60008585604051808383808284378083019250505092505050908152602001604051809103902060020160149054906101000a900460ff16600281111561055357fe5b14156105625760009050610837565b6000600281111561056f57fe5b60008585604051808383808284378083019250505092505050908152602001604051809103902060020160149054906101000a900460ff1660028111156105b257fe5b14156105c15760019050610837565b6001848460405180838380828437808301925050509250505090815260200160405180910390208290806001815401808255809150509060018203906000526020600020016000909192909190916101000a81548173ffffffffffffffffffffffffffffffffffffffff021916908373ffffffffffffffffffffffffffffffffffffffff16021790555050600080905060006001868660405180838380828437808301925050509250505090815260200160405180910390208054905090505b600181038214610798578373ffffffffffffffffffffffffffffffffffffffff1660018787604051808383808284378083019250505092505050908152602001604051809103902083815481106106d457fe5b9060005260206000200160009054906101000a900473ffffffffffffffffffffffffffffffffffffffff1673ffffffffffffffffffffffffffffffffffffffff16141561078b5760018686604051808383808284378083019250505092505050908152602001604051809103902080548061074b57fe5b6001900381819060005260206000200160006101000a81549073ffffffffffffffffffffffffffffffffffffffff02191690559055600092505050610837565b8180600101925050610681565b60008686604051808383808284378083019250505092505050908152602001604051809103902060020160009054906101000a900473ffffffffffffffffffffffffffffffffffffffff1673ffffffffffffffffffffffffffffffffffffffff166108fc6638d7ea4c6800009081150290604051600060405180830381858888f1935050505015801561082f573d6000803e3d6000fd5b506001925050505b9392505050565b60606000151561089185858080601f016020809104026020016040519081016040528093929190818152602001838380828437600081840152601f19601f820116905080830192505050505050506110db565b151514610906576040517f08c379a00000000000000000000000000000000000000000000000000000000081526004018080602001828103825260138152602001807f46696c6520616c7265616479206578697374730000000000000000000000000081525060200191505060405180910390fd5b3360008585604051808383808284378083019250505092505050908152602001604051809103902060020160006101000a81548173ffffffffffffffffffffffffffffffffffffffff021916908373ffffffffffffffffffffffffffffffffffffffff160217905550858560008686604051808383808284378083019250505092505050908152602001604051809103902060010191906109a89291906111b0565b50838360008686604051808383808284378083019250505092505050908152602001604051809103902060000191906109e29291906111b0565b508160008585604051808383808284378083019250505092505050908152602001604051809103902060020160146101000a81548160ff02191690836002811115610a2957fe5b021790555083838080601f016020809104026020016040519081016040528093929190818152602001838380828437600081840152601f19601f82011690508083019250505050505050905095945050505050565b3373ffffffffffffffffffffffffffffffffffffffff168373ffffffffffffffffffffffffffffffffffffffff161415610b20576040517f08c379a000000000000000000000000000000000000000000000000000000000815260040180806020018281038252601d8152602001807f43616e2774206d616b6520796f757273656c662061732061207573657200000081525060200191505060405180910390fd5b60008282604051808383808284378083019250505092505050908152602001604051809103902060020160009054906101000a900473ffffffffffffffffffffffffffffffffffffffff1673ffffffffffffffffffffffffffffffffffffffff163373ffffffffffffffffffffffffffffffffffffffff1614610bee576040517f08c379a00000000000000000000000000000000000000000000000000000000081526004018080602001828103825260238152602001806112566023913960400191505060405180910390fd5b8260008383604051808383808284378083019250505092505050908152602001604051809103902060020160006101000a81548173ffffffffffffffffffffffffffffffffffffffff021916908373ffffffffffffffffffffffffffffffffffffffff160217905550505050565b6000610cab84848080601f016020809104026020016040519081016040528093929190818152602001838380828437600081840152601f19601f820116905080830192505050505050506110db565b610d1d576040517f08c379a00000000000000000000000000000000000000000000000000000000081526004018080602001828103825260138152602001807f4e6f20737563682066696c65206578697374730000000000000000000000000081525060200191505060405180910390fd5b3373ffffffffffffffffffffffffffffffffffffffff168273ffffffffffffffffffffffffffffffffffffffff161415610dbf576040517f08c379a000000000000000000000000000000000000000000000000000000000815260040180806020018281038252601a8152602001807f4f776e65722063616e277420726571756573742061636365737300000000000081525060200191505060405180910390fd5b3373ffffffffffffffffffffffffffffffffffffffff1660008585604051808383808284378083019250505092505050908152602001604051809103902060020160009054906101000a900473ffffffffffffffffffffffffffffffffffffffff1673ffffffffffffffffffffffffffffffffffffffff1614610eaa576040517f08c379a000000000000000000000000000000000000000000000000000000000815260040180806020018281038252601b8152602001807f4f6e6c79206f776e65722063616e206772616e7420616363657373000000000081525060200191505060405180910390fd5b600060018585604051808383808284378083019250505092505050908152602001604051809103902080549050905060008090505b8181146110cd578373ffffffffffffffffffffffffffffffffffffffff166001878760405180838380828437808301925050509250505090815260200160405180910390208281548110610f2f57fe5b9060005260206000200160009054906101000a900473ffffffffffffffffffffffffffffffffffffffff1673ffffffffffffffffffffffffffffffffffffffff1614156110c0576001868660405180838380828437808301925050509250505090815260200160405180910390206001830381548110610fab57fe5b9060005260206000200160009054906101000a900473ffffffffffffffffffffffffffffffffffffffff16600187876040518083838082843780830192505050925050509081526020016040518091039020828154811061100857fe5b9060005260206000200160006101000a81548173ffffffffffffffffffffffffffffffffffffffff021916908373ffffffffffffffffffffffffffffffffffffffff16021790555060018686604051808383808284378083019250505092505050908152602001604051809103902080548061108057fe5b6001900381819060005260206000200160006101000a81549073ffffffffffffffffffffffffffffffffffffffff021916905590556001925050506110d4565b8080600101915050610edf565b6000925050505b9392505050565b60008073ffffffffffffffffffffffffffffffffffffffff166000836040518082805190602001908083835b6020831061112a5780518252602082019150602081019050602083039250611107565b6001836020036101000a038019825116818451168082178552505050505050905001915050908152602001604051809103902060020160009054906101000a900473ffffffffffffffffffffffffffffffffffffffff1673ffffffffffffffffffffffffffffffffffffffff1614156111a657600090506111ab565b600190505b919050565b828054600181600116156101000203166002900490600052602060002090601f016020900481019282601f106111f157803560ff191683800117855561121f565b8280016001018555821561121f579182015b8281111561121e578235825591602001919060010190611203565b5b50905061122c9190611230565b5090565b61125291905b8082111561124e576000816000905550600101611236565b5090565b9056fe4f6e6c79206f776e65722063616e206368616e6765206f776e6572206f662066696c65a265627a7a723158200e0b8dd40454a50e56fbe6887916877466f41980c9aa9b4ec757438df0f5fcbe64736f6c63430005100032",
  "source": "// SPDX-License-Identifier: MIT\npragma solidity >=0.4.22 <0.9.0;\n\ncontract FileContract {\n\n    uint256 constant priceForAccess = 0.016 ether; // price for access\n    enum FileType {Public, Private, Shared}\n\n    struct File {\n        string fileName;\n        string ipfsHash;\n        address payable owner;\n        FileType fileType;\n    }\n\n    mapping(string => File) files;\n    mapping(string => address[]) requests;\n    mapping(string => address[]) grants;\n\n    function fileExists(string memory fileName) private view returns(bool){\n        if(files[fileName].owner == address(0)){\n            return(false);\n        }\n        return(true);\n    }\n\n    function requestAccess(string calldata fileName, address payable user) external payable returns (bool) {\n        require(user != msg.sender, \"Owner can't request access\");\n        require(fileExists(fileName), \"No such file exists\");\n        if(files[fileName].fileType == FileType.Private) {\n            return (false);\n        }\n        if (files[fileName].fileType == FileType.Public) {\n            return(true);\n        }\n        requests[fileName].push(user);\n        uint i = 0;\n        uint len = requests[fileName].length;\n        for (; i != len - 1; i++) {\n            if (requests[fileName][i] == user) {\n                requests[fileName].pop();\n                return(false);\n            }\n        }\n        address(files[fileName].owner).transfer(priceForAccess);\n        return(true);\n    }\n\n    function grantAccess(string calldata fileName, address payable user) external payable returns (bool) {\n        require(fileExists(fileName), \"No such file exists\");\n        require(user != msg.sender, \"Owner can't request access\");\n        require(files[fileName].owner == msg.sender, \"Only owner can grant access\");\n        uint len = requests[fileName].length;\n        uint i = 0;\n        for (; i != len; i++) {\n            if (requests[fileName][i] == user) {\n                requests[fileName][i] = requests[fileName][len - 1];\n                requests[fileName].pop();\n                return(true);\n            }\n        }\n        return(false);\n    }\n\n    function changeOwner(address payable newUser, string calldata fileName) external payable{\n        require(newUser != msg.sender, \"Can't make yourself as a user\");\n        require(msg.sender == files[fileName].owner, \"Only owner can change owner of file\");\n        files[fileName].owner = newUser;\n    }\n\n    function addFile(string calldata fileHash, string calldata fileName, FileType fileType) external returns (string memory){\n        require(fileExists(fileName) == false, \"File already exists\");\n        files[fileName].owner = msg.sender;\n        files[fileName].ipfsHash = fileHash;\n        files[fileName].fileName = fileName;\n        files[fileName].fileType = fileType;\n        return (fileName);\n    }\n}\n\n",
  "sourcePath": "/home/lakhan/Desktop/ipfs_ethereum/contracts/FileContract.sol",
  "compiler": {
    "name": "solc",
    "version": "0.5.16+commit.9c3226ce.Emscripten.clang"
  },
  "schemaVersion": "3.4.1",
  "updatedAt": "2021-06-08T16:47:53.452Z",
  "networkType": "ethereum",
  "devdoc": {
    "methods": {}
  },
  "userdoc": {
    "methods": {}
  }
}